:1000000014C019C018C017C016C015C014C013C042
:1000100012C011C010C00FC00EC00DC00CC00BC06C
:100020000AC009C008C007C006C011241FBECFED1A
:10003000CDBF02D067C0E4CFCF93DF93CDB7DD272C
:10004000C850CDBF81E390E021E330E0F901208189
:100050002160FC01208382E390E022E330E0F9019B
:1000600020812160FC01208319821A821B821C825C
:1000700014C082E390E022E330E0F90120812160A6
:10008000FC01208389819A81AB81BC810196A11DED
:10009000B11D89839A83AB83BC8389819A81AB81AB
:1000A000BC8180349244AF40B1051CF382E390E000
:1000B00022E330E0F90120812E7FFC0120831D82A4
:1000C0001E821F82188614C082E390E022E330E093
:1000D000F90120812E7FFC0120838D819E81AF81DB
:1000E000B8850196A11DB11D8D839E83AF83B8870E
:1000F0008D819E81AF81B88580349244AF40B10537
:080100001CF3A9CFF894FFCF16
:00000001FF
